{
  "_format": "hh-sol-artifact-1",
  "contractName": "Domains",
  "sourceName": "contracts/Domains.sol",
  "abi": [
    {
      "inputs": [
        {
          "internalType": "string",
          "name": "_tld",
          "type": "string"
        }
      ],
      "stateMutability": "payable",
      "type": "constructor"
    },
    {
      "anonymous": false,
      "inputs": [
        {
          "indexed": true,
          "internalType": "address",
          "name": "owner",
          "type": "address"
        },
        {
          "indexed": true,
          "internalType": "address",
          "name": "approved",
          "type": "address"
        },
        {
          "indexed": true,
          "internalType": "uint256",
          "name": "tokenId",
          "type": "uint256"
        }
      ],
      "name": "Approval",
      "type": "event"
    },
    {
      "anonymous": false,
      "inputs": [
        {
          "indexed": true,
          "internalType": "address",
          "name": "owner",
          "type": "address"
        },
        {
          "indexed": true,
          "internalType": "address",
          "name": "operator",
          "type": "address"
        },
        {
          "indexed": false,
          "internalType": "bool",
          "name": "approved",
          "type": "bool"
        }
      ],
      "name": "ApprovalForAll",
      "type": "event"
    },
    {
      "anonymous": false,
      "inputs": [
        {
          "indexed": false,
          "internalType": "uint256",
          "name": "_fromTokenId",
          "type": "uint256"
        },
        {
          "indexed": false,
          "internalType": "uint256",
          "name": "_toTokenId",
          "type": "uint256"
        }
      ],
      "name": "BatchMetadataUpdate",
      "type": "event"
    },
    {
      "anonymous": false,
      "inputs": [
        {
          "indexed": false,
          "internalType": "uint256",
          "name": "_tokenId",
          "type": "uint256"
        }
      ],
      "name": "MetadataUpdate",
      "type": "event"
    },
    {
      "anonymous": false,
      "inputs": [
        {
          "indexed": true,
          "internalType": "address",
          "name": "from",
          "type": "address"
        },
        {
          "indexed": true,
          "internalType": "address",
          "name": "to",
          "type": "address"
        },
        {
          "indexed": true,
          "internalType": "uint256",
          "name": "tokenId",
          "type": "uint256"
        }
      ],
      "name": "Transfer",
      "type": "event"
    },
    {
      "inputs": [
        {
          "internalType": "address",
          "name": "to",
          "type": "address"
        },
        {
          "internalType": "uint256",
          "name": "tokenId",
          "type": "uint256"
        }
      ],
      "name": "approve",
      "outputs": [],
      "stateMutability": "nonpayable",
      "type": "function"
    },
    {
      "inputs": [
        {
          "internalType": "address",
          "name": "owner",
          "type": "address"
        }
      ],
      "name": "balanceOf",
      "outputs": [
        {
          "internalType": "uint256",
          "name": "",
          "type": "uint256"
        }
      ],
      "stateMutability": "view",
      "type": "function"
    },
    {
      "inputs": [
        {
          "internalType": "string",
          "name": "",
          "type": "string"
        }
      ],
      "name": "domains",
      "outputs": [
        {
          "internalType": "address",
          "name": "",
          "type": "address"
        }
      ],
      "stateMutability": "view",
      "type": "function"
    },
    {
      "inputs": [
        {
          "internalType": "string",
          "name": "name",
          "type": "string"
        }
      ],
      "name": "getAddress",
      "outputs": [
        {
          "internalType": "address",
          "name": "",
          "type": "address"
        }
      ],
      "stateMutability": "view",
      "type": "function"
    },
    {
      "inputs": [
        {
          "internalType": "uint256",
          "name": "tokenId",
          "type": "uint256"
        }
      ],
      "name": "getApproved",
      "outputs": [
        {
          "internalType": "address",
          "name": "",
          "type": "address"
        }
      ],
      "stateMutability": "view",
      "type": "function"
    },
    {
      "inputs": [
        {
          "internalType": "string",
          "name": "name",
          "type": "string"
        }
      ],
      "name": "getRecord",
      "outputs": [
        {
          "internalType": "string",
          "name": "",
          "type": "string"
        }
      ],
      "stateMutability": "view",
      "type": "function"
    },
    {
      "inputs": [
        {
          "internalType": "address",
          "name": "owner",
          "type": "address"
        },
        {
          "internalType": "address",
          "name": "operator",
          "type": "address"
        }
      ],
      "name": "isApprovedForAll",
      "outputs": [
        {
          "internalType": "bool",
          "name": "",
          "type": "bool"
        }
      ],
      "stateMutability": "view",
      "type": "function"
    },
    {
      "inputs": [],
      "name": "name",
      "outputs": [
        {
          "internalType": "string",
          "name": "",
          "type": "string"
        }
      ],
      "stateMutability": "view",
      "type": "function"
    },
    {
      "inputs": [
        {
          "internalType": "uint256",
          "name": "tokenId",
          "type": "uint256"
        }
      ],
      "name": "ownerOf",
      "outputs": [
        {
          "internalType": "address",
          "name": "",
          "type": "address"
        }
      ],
      "stateMutability": "view",
      "type": "function"
    },
    {
      "inputs": [
        {
          "internalType": "string",
          "name": "name",
          "type": "string"
        }
      ],
      "name": "price",
      "outputs": [
        {
          "internalType": "uint256",
          "name": "",
          "type": "uint256"
        }
      ],
      "stateMutability": "pure",
      "type": "function"
    },
    {
      "inputs": [
        {
          "internalType": "string",
          "name": "",
          "type": "string"
        }
      ],
      "name": "records",
      "outputs": [
        {
          "internalType": "string",
          "name": "",
          "type": "string"
        }
      ],
      "stateMutability": "view",
      "type": "function"
    },
    {
      "inputs": [
        {
          "internalType": "string",
          "name": "name",
          "type": "string"
        }
      ],
      "name": "register",
      "outputs": [],
      "stateMutability": "payable",
      "type": "function"
    },
    {
      "inputs": [
        {
          "internalType": "address",
          "name": "from",
          "type": "address"
        },
        {
          "internalType": "address",
          "name": "to",
          "type": "address"
        },
        {
          "internalType": "uint256",
          "name": "tokenId",
          "type": "uint256"
        }
      ],
      "name": "safeTransferFrom",
      "outputs": [],
      "stateMutability": "nonpayable",
      "type": "function"
    },
    {
      "inputs": [
        {
          "internalType": "address",
          "name": "from",
          "type": "address"
        },
        {
          "internalType": "address",
          "name": "to",
          "type": "address"
        },
        {
          "internalType": "uint256",
          "name": "tokenId",
          "type": "uint256"
        },
        {
          "internalType": "bytes",
          "name": "data",
          "type": "bytes"
        }
      ],
      "name": "safeTransferFrom",
      "outputs": [],
      "stateMutability": "nonpayable",
      "type": "function"
    },
    {
      "inputs": [
        {
          "internalType": "address",
          "name": "operator",
          "type": "address"
        },
        {
          "internalType": "bool",
          "name": "approved",
          "type": "bool"
        }
      ],
      "name": "setApprovalForAll",
      "outputs": [],
      "stateMutability": "nonpayable",
      "type": "function"
    },
    {
      "inputs": [
        {
          "internalType": "string",
          "name": "name",
          "type": "string"
        },
        {
          "internalType": "string",
          "name": "record",
          "type": "string"
        }
      ],
      "name": "setRecord",
      "outputs": [],
      "stateMutability": "nonpayable",
      "type": "function"
    },
    {
      "inputs": [
        {
          "internalType": "bytes4",
          "name": "interfaceId",
          "type": "bytes4"
        }
      ],
      "name": "supportsInterface",
      "outputs": [
        {
          "internalType": "bool",
          "name": "",
          "type": "bool"
        }
      ],
      "stateMutability": "view",
      "type": "function"
    },
    {
      "inputs": [],
      "name": "symbol",
      "outputs": [
        {
          "internalType": "string",
          "name": "",
          "type": "string"
        }
      ],
      "stateMutability": "view",
      "type": "function"
    },
    {
      "inputs": [],
      "name": "tld",
      "outputs": [
        {
          "internalType": "string",
          "name": "",
          "type": "string"
        }
      ],
      "stateMutability": "view",
      "type": "function"
    },
    {
      "inputs": [
        {
          "internalType": "uint256",
          "name": "tokenId",
          "type": "uint256"
        }
      ],
      "name": "tokenURI",
      "outputs": [
        {
          "internalType": "string",
          "name": "",
          "type": "string"
        }
      ],
      "stateMutability": "view",
      "type": "function"
    },
    {
      "inputs": [
        {
          "internalType": "address",
          "name": "from",
          "type": "address"
        },
        {
          "internalType": "address",
          "name": "to",
          "type": "address"
        },
        {
          "internalType": "uint256",
          "name": "tokenId",
          "type": "uint256"
        }
      ],
      "name": "transferFrom",
      "outputs": [],
      "stateMutability": "nonpayable",
      "type": "function"
    }
  ],
  "bytecode": "0x6080604052604051806108a0016040528061086b815260200162004c7761086b913960099081620000319190620004de565b506040518060400160405280600d81526020017f3c2f746578743e3c2f7376673e00000000000000000000000000000000000000815250600a9081620000789190620004de565b50604051620054e2380380620054e283398181016040528101906200009e919062000729565b6040518060400160405280601281526020017f4e696e6a61204e616d65205365727669636500000000000000000000000000008152506040518060400160405280600381526020017f4e4e53000000000000000000000000000000000000000000000000000000000081525081600090816200011b9190620004de565b5080600190816200012d9190620004de565b5050508060089081620001419190620004de565b506200018e6040518060400160405280601881526020017f2573206e616d652073657276696365206465706c6f7965640000000000000000815250826200019560201b620014121760201c565b5062000807565b620002378282604051602401620001ae929190620007cc565b6040516020818303038152906040527f4b5c4277000000000000000000000000000000000000000000000000000000007bffffffffffffffffffffffffffffffffffffffffffffffffffffffff19166020820180517bffffffffffffffffffffffffffffffffffffffffffffffffffffffff83818316178352505050506200023b60201b60201c565b5050565b60008151905060006a636f6e736f6c652e6c6f679050602083016000808483855afa5050505050565b600081519050919050565b7f4e487b7100000000000000000000000000000000000000000000000000000000600052604160045260246000fd5b7f4e487b7100000000000000000000000000000000000000000000000000000000600052602260045260246000fd5b60006002820490506001821680620002e657607f821691505b602082108103620002fc57620002fb6200029e565b5b50919050565b60008190508160005260206000209050919050565b60006020601f8301049050919050565b600082821b905092915050565b600060088302620003667fffffffffffffffffffffffffffffffffffffffffffffffffffffffffffffffff8262000327565b62000372868362000327565b95508019841693508086168417925050509392505050565b6000819050919050565b6000819050919050565b6000620003bf620003b9620003b3846200038a565b62000394565b6200038a565b9050919050565b6000819050919050565b620003db836200039e565b620003f3620003ea82620003c6565b84845462000334565b825550505050565b600090565b6200040a620003fb565b62000417818484620003d0565b505050565b5b818110156200043f576200043360008262000400565b6001810190506200041d565b5050565b601f8211156200048e57620004588162000302565b620004638462000317565b8101602085101562000473578190505b6200048b620004828562000317565b8301826200041c565b50505b505050565b600082821c905092915050565b6000620004b36000198460080262000493565b1980831691505092915050565b6000620004ce8383620004a0565b9150826002028217905092915050565b620004e98262000264565b67ffffffffffffffff8111156200050557620005046200026f565b5b620005118254620002cd565b6200051e82828562000443565b600060209050601f83116001811462000556576000841562000541578287015190505b6200054d8582620004c0565b865550620005bd565b601f198416620005668662000302565b60005b82811015620005905784890151825560018201915060208501945060208101905062000569565b86831015620005b05784890151620005ac601f891682620004a0565b8355505b6001600288020188555050505b505050505050565b6000604051905090565b600080fd5b600080fd5b600080fd5b600080fd5b6000601f19601f8301169050919050565b620005ff82620005e3565b810181811067ffffffffffffffff821117156200062157620006206200026f565b5b80604052505050565b600062000636620005c5565b9050620006448282620005f4565b919050565b600067ffffffffffffffff8211156200066757620006666200026f565b5b6200067282620005e3565b9050602081019050919050565b60005b838110156200069f57808201518184015260208101905062000682565b60008484015250505050565b6000620006c2620006bc8462000649565b6200062a565b905082815260208101848484011115620006e157620006e0620005de565b5b620006ee8482856200067f565b509392505050565b600082601f8301126200070e576200070d620005d9565b5b815162000720848260208601620006ab565b91505092915050565b600060208284031215620007425762000741620005cf565b5b600082015167ffffffffffffffff811115620007635762000762620005d4565b5b6200077184828501620006f6565b91505092915050565b600082825260208201905092915050565b6000620007988262000264565b620007a481856200077a565b9350620007b68185602086016200067f565b620007c181620005e3565b840191505092915050565b60006040820190508181036000830152620007e881856200078b565b90508181036020830152620007fe81846200078b565b90509392505050565b61446080620008176000396000f3fe60806040526004361061012a5760003560e01c80636352211e116100ab578063bf40fac11161006f578063bf40fac114610428578063c1880a9814610465578063c87b56dd1461048e578063e985e9c5146104cb578063f2c298be14610508578063fe2c6198146105245761012a565b80636352211e1461033157806370a082311461036e57806395d89b41146103ab578063a22cb465146103d6578063b88d4fde146103ff5761012a565b806323b872dd116100f257806323b872dd1461023a57806326449235146102635780632d551432146102a057806342842e0e146102cb578063541e771d146102f45761012a565b806301ffc9a71461012f57806306fdde031461016c578063081812fc14610197578063095ea7b3146101d457806311dd8845146101fd575b600080fd5b34801561013b57600080fd5b5061015660048036038101906101519190612a46565b610561565b6040516101639190612a8e565b60405180910390f35b34801561017857600080fd5b506101816105c2565b60405161018e9190612b39565b60405180910390f35b3480156101a357600080fd5b506101be60048036038101906101b99190612b91565b610654565b6040516101cb9190612bff565b60405180910390f35b3480156101e057600080fd5b506101fb60048036038101906101f69190612c46565b61069a565b005b34801561020957600080fd5b50610224600480360381019061021f9190612ceb565b6107b1565b6040516102319190612b39565b60405180910390f35b34801561024657600080fd5b50610261600480360381019061025c9190612d38565b610864565b005b34801561026f57600080fd5b5061028a60048036038101906102859190612ebb565b6108c4565b6040516102979190612bff565b60405180910390f35b3480156102ac57600080fd5b506102b561090d565b6040516102c29190612b39565b60405180910390f35b3480156102d757600080fd5b506102f260048036038101906102ed9190612d38565b61099b565b005b34801561030057600080fd5b5061031b60048036038101906103169190612ebb565b6109bb565b6040516103289190612b39565b60405180910390f35b34801561033d57600080fd5b5061035860048036038101906103539190612b91565b610a71565b6040516103659190612bff565b60405180910390f35b34801561037a57600080fd5b5061039560048036038101906103909190612f04565b610af7565b6040516103a29190612f40565b60405180910390f35b3480156103b757600080fd5b506103c0610bae565b6040516103cd9190612b39565b60405180910390f35b3480156103e257600080fd5b506103fd60048036038101906103f89190612f87565b610c40565b005b34801561040b57600080fd5b5061042660048036038101906104219190613068565b610c56565b005b34801561043457600080fd5b5061044f600480360381019061044a9190612ceb565b610cb8565b60405161045c9190612bff565b60405180910390f35b34801561047157600080fd5b5061048c600480360381019061048791906130eb565b610d03565b005b34801561049a57600080fd5b506104b560048036038101906104b09190612b91565b610db1565b6040516104c29190612b39565b60405180910390f35b3480156104d757600080fd5b506104f260048036038101906104ed919061316c565b610ec3565b6040516104ff9190612a8e565b60405180910390f35b610522600480360381019061051d9190612ceb565b610f57565b005b34801561053057600080fd5b5061054b60048036038101906105469190612ceb565b611377565b6040516105589190612f40565b60405180910390f35b6000634906490660e01b7bffffffffffffffffffffffffffffffffffffffffffffffffffffffff1916827bffffffffffffffffffffffffffffffffffffffffffffffffffffffff191614806105bb57506105ba826114ae565b5b9050919050565b6060600080546105d1906131db565b80601f01602080910402602001604051908101604052809291908181526020018280546105fd906131db565b801561064a5780601f1061061f5761010080835404028352916020019161064a565b820191906000526020600020905b81548152906001019060200180831161062d57829003601f168201915b5050505050905090565b600061065f82611590565b6004600083815260200190815260200160002060009054906101000a900473ffffffffffffffffffffffffffffffffffffffff169050919050565b60006106a582610a71565b90508073ffffffffffffffffffffffffffffffffffffffff168373ffffffffffffffffffffffffffffffffffffffff1603610715576040517f08c379a000000000000000000000000000000000000000000000000000000000815260040161070c9061327e565b60405180910390fd5b8073ffffffffffffffffffffffffffffffffffffffff166107346115db565b73ffffffffffffffffffffffffffffffffffffffff16148061076357506107628161075d6115db565b610ec3565b5b6107a2576040517f08c379a000000000000000000000000000000000000000000000000000000000815260040161079990613310565b60405180910390fd5b6107ac83836115e3565b505050565b6060600c83836040516107c5929190613360565b908152602001604051809103902080546107de906131db565b80601f016020809104026020016040519081016040528092919081815260200182805461080a906131db565b80156108575780601f1061082c57610100808354040283529160200191610857565b820191906000526020600020905b81548152906001019060200180831161083a57829003601f168201915b5050505050905092915050565b61087561086f6115db565b8261169c565b6108b4576040517f08c379a00000000000000000000000000000000000000000000000000000000081526004016108ab906133eb565b60405180910390fd5b6108bf838383611731565b505050565b600b818051602081018201805184825260208301602085012081835280955050505050506000915054906101000a900473ffffffffffffffffffffffffffffffffffffffff1681565b6008805461091a906131db565b80601f0160208091040260200160405190810160405280929190818152602001828054610946906131db565b80156109935780601f1061096857610100808354040283529160200191610993565b820191906000526020600020905b81548152906001019060200180831161097657829003601f168201915b505050505081565b6109b683838360405180602001604052806000815250610c56565b505050565b600c8180516020810182018051848252602083016020850120818352809550505050505060009150905080546109f0906131db565b80601f0160208091040260200160405190810160405280929190818152602001828054610a1c906131db565b8015610a695780601f10610a3e57610100808354040283529160200191610a69565b820191906000526020600020905b815481529060010190602001808311610a4c57829003601f168201915b505050505081565b600080610a7d83611a2a565b9050600073ffffffffffffffffffffffffffffffffffffffff168173ffffffffffffffffffffffffffffffffffffffff1603610aee576040517f08c379a0000000000000000000000000000000000000000000000000000000008152600401610ae590613457565b60405180910390fd5b80915050919050565b60008073ffffffffffffffffffffffffffffffffffffffff168273ffffffffffffffffffffffffffffffffffffffff1603610b67576040517f08c379a0000000000000000000000000000000000000000000000000000000008152600401610b5e906134e9565b60405180910390fd5b600360008373ffffffffffffffffffffffffffffffffffffffff1673ffffffffffffffffffffffffffffffffffffffff168152602001908152602001600020549050919050565b606060018054610bbd906131db565b80601f0160208091040260200160405190810160405280929190818152602001828054610be9906131db565b8015610c365780601f10610c0b57610100808354040283529160200191610c36565b820191906000526020600020905b815481529060010190602001808311610c1957829003601f168201915b5050505050905090565b610c52610c4b6115db565b8383611a67565b5050565b610c67610c616115db565b8361169c565b610ca6576040517f08c379a0000000000000000000000000000000000000000000000000000000008152600401610c9d906133eb565b60405180910390fd5b610cb284848484611bd3565b50505050565b6000600b8383604051610ccc929190613360565b908152602001604051809103902060009054906101000a900473ffffffffffffffffffffffffffffffffffffffff16905092915050565b3373ffffffffffffffffffffffffffffffffffffffff16600b8585604051610d2c929190613360565b908152602001604051809103902060009054906101000a900473ffffffffffffffffffffffffffffffffffffffff1673ffffffffffffffffffffffffffffffffffffffff1614610d7b57600080fd5b8181600c8686604051610d8f929190613360565b90815260200160405180910390209182610daa9291906136c0565b5050505050565b6060610dbc82611590565b6000600660008481526020019081526020016000208054610ddc906131db565b80601f0160208091040260200160405190810160405280929190818152602001828054610e08906131db565b8015610e555780601f10610e2a57610100808354040283529160200191610e55565b820191906000526020600020905b815481529060010190602001808311610e3857829003601f168201915b505050505090506000610e66611c2f565b90506000815103610e7b578192505050610ebe565b600082511115610eb0578082604051602001610e989291906137c1565b60405160208183030381529060405292505050610ebe565b610eb984611c46565b925050505b919050565b6000600560008473ffffffffffffffffffffffffffffffffffffffff1673ffffffffffffffffffffffffffffffffffffffff16815260200190815260200160002060008373ffffffffffffffffffffffffffffffffffffffff1673ffffffffffffffffffffffffffffffffffffffff16815260200190815260200160002060009054906101000a900460ff16905092915050565b600073ffffffffffffffffffffffffffffffffffffffff16600b8383604051610f81929190613360565b908152602001604051809103902060009054906101000a900473ffffffffffffffffffffffffffffffffffffffff1673ffffffffffffffffffffffffffffffffffffffff1614610fd057600080fd5b6000610fdc8383611377565b905080341015611021576040517f08c379a000000000000000000000000000000000000000000000000000000000815260040161101890613831565b60405180910390fd5b60008383600860405160200161103993929190613920565b60405160208183030381529060405290506000600982600a60405160200161106393929190613951565b604051602081830303815290604052905060006110806007611cae565b905060006110d187878080601f016020809104026020016040519081016040528093929190818152602001838380828437600081840152601f19601f82011690508083019250505050505050611cbc565b905060006110de82611e71565b90506111d26040518060600160405280603181526020016143816031913989898080601f016020809104026020016040519081016040528093929190818152602001838380828437600081840152601f19601f820116905080830192505050505050506008805461114e906131db565b80601f016020809104026020016040519081016040528092919081815260200182805461117a906131db565b80156111c75780601f1061119c576101008083540402835291602001916111c7565b820191906000526020600020905b8154815290600101906020018083116111aa57829003601f168201915b505050505086611f3f565b6000611208866111e187611fe1565b846040516020016111f493929190613afe565b604051602081830303815290604052611fe1565b905060008160405160200161121d9190613ba7565b604051602081830303815290604052905061124f60405180606001604052806039815260200161434860399139612178565b61128e6040518060400160405280600e81526020017f46696e616c20746f6b656e55524900000000000000000000000000000000000081525082611412565b6112af6040518060600160405280603981526020016143b260399139612178565b6112b93386612211565b6112c3858261222f565b33600b8b8b6040516112d6929190613360565b908152602001604051809103902060006101000a81548173ffffffffffffffffffffffffffffffffffffffff021916908373ffffffffffffffffffffffffffffffffffffffff1602179055506113616040518060400160405280601b81526020017f2573206861732072656769737465726564206120646f6d61696e210000000000815250336122d3565b61136b600761236f565b50505050505050505050565b6000806113c784848080601f016020809104026020016040519081016040528093929190818152602001838380828437600081840152601f19601f82011690508083019250505050505050611cbc565b9050600081116113d657600080fd5b600381036113ec5764746a52880091505061140c565b60048103611402576445d964b80091505061140c565b64174876e8009150505b92915050565b6114aa8282604051602401611428929190613bc9565b6040516020818303038152906040527f4b5c4277000000000000000000000000000000000000000000000000000000007bffffffffffffffffffffffffffffffffffffffffffffffffffffffff19166020820180517bffffffffffffffffffffffffffffffffffffffffffffffffffffffff8381831617835250505050612385565b5050565b60007f80ac58cd000000000000000000000000000000000000000000000000000000007bffffffffffffffffffffffffffffffffffffffffffffffffffffffff1916827bffffffffffffffffffffffffffffffffffffffffffffffffffffffff1916148061157957507f5b5e139f000000000000000000000000000000000000000000000000000000007bffffffffffffffffffffffffffffffffffffffffffffffffffffffff1916827bffffffffffffffffffffffffffffffffffffffffffffffffffffffff1916145b806115895750611588826123ae565b5b9050919050565b61159981612418565b6115d8576040517f08c379a00000000000000000000000000000000000000000000000000000000081526004016115cf90613457565b60405180910390fd5b50565b600033905090565b816004600083815260200190815260200160002060006101000a81548173ffffffffffffffffffffffffffffffffffffffff021916908373ffffffffffffffffffffffffffffffffffffffff160217905550808273ffffffffffffffffffffffffffffffffffffffff1661165683610a71565b73ffffffffffffffffffffffffffffffffffffffff167f8c5be1e5ebec7d5bd14f71427d1e84f3dd0314c0f7b2291e5b200ac8c7c3b92560405160405180910390a45050565b6000806116a883610a71565b90508073ffffffffffffffffffffffffffffffffffffffff168473ffffffffffffffffffffffffffffffffffffffff1614806116ea57506116e98185610ec3565b5b8061172857508373ffffffffffffffffffffffffffffffffffffffff1661171084610654565b73ffffffffffffffffffffffffffffffffffffffff16145b91505092915050565b8273ffffffffffffffffffffffffffffffffffffffff1661175182610a71565b73ffffffffffffffffffffffffffffffffffffffff16146117a7576040517f08c379a000000000000000000000000000000000000000000000000000000000815260040161179e90613c72565b60405180910390fd5b600073ffffffffffffffffffffffffffffffffffffffff168273ffffffffffffffffffffffffffffffffffffffff1603611816576040517f08c379a000000000000000000000000000000000000000000000000000000000815260040161180d90613d04565b60405180910390fd5b6118238383836001612459565b8273ffffffffffffffffffffffffffffffffffffffff1661184382610a71565b73ffffffffffffffffffffffffffffffffffffffff1614611899576040517f08c379a000000000000000000000000000000000000000000000000000000000815260040161189090613c72565b60405180910390fd5b6004600082815260200190815260200160002060006101000a81549073ffffffffffffffffffffffffffffffffffffffff02191690556001600360008573ffffffffffffffffffffffffffffffffffffffff1673ffffffffffffffffffffffffffffffffffffffff168152602001908152602001600020600082825403925050819055506001600360008473ffffffffffffffffffffffffffffffffffffffff1673ffffffffffffffffffffffffffffffffffffffff16815260200190815260200160002060008282540192505081905550816002600083815260200190815260200160002060006101000a81548173ffffffffffffffffffffffffffffffffffffffff021916908373ffffffffffffffffffffffffffffffffffffffff160217905550808273ffffffffffffffffffffffffffffffffffffffff168473ffffffffffffffffffffffffffffffffffffffff167fddf252ad1be2c89b69c2b068fc378daa952ba7f163c4a11628f55a4df523b3ef60405160405180910390a4611a25838383600161245f565b505050565b60006002600083815260200190815260200160002060009054906101000a900473ffffffffffffffffffffffffffffffffffffffff169050919050565b8173ffffffffffffffffffffffffffffffffffffffff168373ffffffffffffffffffffffffffffffffffffffff1603611ad5576040517f08c379a0000000000000000000000000000000000000000000000000000000008152600401611acc90613d70565b60405180910390fd5b80600560008573ffffffffffffffffffffffffffffffffffffffff1673ffffffffffffffffffffffffffffffffffffffff16815260200190815260200160002060008473ffffffffffffffffffffffffffffffffffffffff1673ffffffffffffffffffffffffffffffffffffffff16815260200190815260200160002060006101000a81548160ff0219169083151502179055508173ffffffffffffffffffffffffffffffffffffffff168373ffffffffffffffffffffffffffffffffffffffff167f17307eab39ab6107e8899845ad3d59bd9653f200f220920489ca2b5937696c3183604051611bc69190612a8e565b60405180910390a3505050565b611bde848484611731565b611bea84848484612465565b611c29576040517f08c379a0000000000000000000000000000000000000000000000000000000008152600401611c2090613e02565b60405180910390fd5b50505050565b606060405180602001604052806000815250905090565b6060611c5182611590565b6000611c5b611c2f565b90506000815111611c7b5760405180602001604052806000815250611ca6565b80611c8584611e71565b604051602001611c969291906137c1565b6040516020818303038152906040525b915050919050565b600081600001549050919050565b60008060008084519050600092505b80821015611e66576000858381518110611ce857611ce7613e22565b5b602001015160f81c60f81b9050608060f81b817effffffffffffffffffffffffffffffffffffffffffffffffffffffffffffff19161015611d3757600183611d309190613e80565b9250611e52565b60e060f81b817effffffffffffffffffffffffffffffffffffffffffffffffffffffffffffff19161015611d7957600283611d729190613e80565b9250611e51565b60f060f81b817effffffffffffffffffffffffffffffffffffffffffffffffffffffffffffff19161015611dbb57600383611db49190613e80565b9250611e50565b60f8801b817effffffffffffffffffffffffffffffffffffffffffffffffffffffffffffff19161015611dfc57600483611df59190613e80565b9250611e4f565b60fc60f81b817effffffffffffffffffffffffffffffffffffffffffffffffffffffffffffff19161015611e3e57600583611e379190613e80565b9250611e4e565b600683611e4b9190613e80565b92505b5b5b5b5b508280611e5e90613eb4565b935050611ccb565b829350505050919050565b606060006001611e80846125ec565b01905060008167ffffffffffffffff811115611e9f57611e9e612d90565b5b6040519080825280601f01601f191660200182016040528015611ed15781602001600182028036833780820191505090505b509050600082602001820190505b600115611f34578080600190039150507f3031323334353637383961626364656600000000000000000000000000000000600a86061a8153600a8581611f2857611f27613efc565b5b04945060008503611edf575b819350505050919050565b611fdb84848484604051602401611f599493929190613f2b565b6040516020818303038152906040527f8eafb02b000000000000000000000000000000000000000000000000000000007bffffffffffffffffffffffffffffffffffffffffffffffffffffffff19166020820180517bffffffffffffffffffffffffffffffffffffffffffffffffffffffff8381831617835250505050612385565b50505050565b6060600082519050600081036120095760405180602001604052806000815250915050612173565b6000600360028361201a9190613e80565b6120249190613f85565b60046120309190613fb6565b905060006020826120419190613e80565b67ffffffffffffffff81111561205a57612059612d90565b5b6040519080825280601f01601f19166020018201604052801561208c5781602001600182028036833780820191505090505b50905060006040518060600160405280604081526020016143eb604091399050600181016020830160005b868110156121305760038101905062ffffff818a015116603f8160121c168401518060081b905060ff603f83600c1c1686015116810190508060081b905060ff603f8360061c1686015116810190508060081b905060ff603f831686015116810190508060e01b905080845260048401935050506120b7565b50600386066001811461214a576002811461215a57612165565b613d3d60f01b6002830352612165565b603d60f81b60018303525b508484525050819450505050505b919050565b61220e8160405160240161218c9190612b39565b6040516020818303038152906040527f41304fac000000000000000000000000000000000000000000000000000000007bffffffffffffffffffffffffffffffffffffffffffffffffffffffff19166020820180517bffffffffffffffffffffffffffffffffffffffffffffffffffffffff8381831617835250505050612385565b50565b61222b82826040518060200160405280600081525061273f565b5050565b61223882612418565b612277576040517f08c379a000000000000000000000000000000000000000000000000000000000815260040161226e9061406a565b60405180910390fd5b80600660008481526020019081526020016000209081612297919061408a565b507ff8e1a15aba9398e019f0b49df1a4fde98ee17ae345cb5f6b5e2c27f5033e8ce7826040516122c79190612f40565b60405180910390a15050565b61236b82826040516024016122e992919061415c565b6040516020818303038152906040527f319af333000000000000000000000000000000000000000000000000000000007bffffffffffffffffffffffffffffffffffffffffffffffffffffffff19166020820180517bffffffffffffffffffffffffffffffffffffffffffffffffffffffff8381831617835250505050612385565b5050565b6001816000016000828254019250508190555050565b60008151905060006a636f6e736f6c652e6c6f679050602083016000808483855afa5050505050565b60007f01ffc9a7000000000000000000000000000000000000000000000000000000007bffffffffffffffffffffffffffffffffffffffffffffffffffffffff1916827bffffffffffffffffffffffffffffffffffffffffffffffffffffffff1916149050919050565b60008073ffffffffffffffffffffffffffffffffffffffff1661243a83611a2a565b73ffffffffffffffffffffffffffffffffffffffff1614159050919050565b50505050565b50505050565b60006124868473ffffffffffffffffffffffffffffffffffffffff1661279a565b156125df578373ffffffffffffffffffffffffffffffffffffffff1663150b7a026124af6115db565b8786866040518563ffffffff1660e01b81526004016124d194939291906141e1565b6020604051808303816000875af192505050801561250d57506040513d601f19601f8201168201806040525081019061250a9190614242565b60015b61258f573d806000811461253d576040519150601f19603f3d011682016040523d82523d6000602084013e612542565b606091505b506000815103612587576040517f08c379a000000000000000000000000000000000000000000000000000000000815260040161257e90613e02565b60405180910390fd5b805181602001fd5b63150b7a0260e01b7bffffffffffffffffffffffffffffffffffffffffffffffffffffffff1916817bffffffffffffffffffffffffffffffffffffffffffffffffffffffff1916149150506125e4565b600190505b949350505050565b600080600090507a184f03e93ff9f4daa797ed6e38ed64bf6a1f010000000000000000831061264a577a184f03e93ff9f4daa797ed6e38ed64bf6a1f01000000000000000083816126405761263f613efc565b5b0492506040810190505b6d04ee2d6d415b85acef81000000008310612687576d04ee2d6d415b85acef8100000000838161267d5761267c613efc565b5b0492506020810190505b662386f26fc1000083106126b657662386f26fc1000083816126ac576126ab613efc565b5b0492506010810190505b6305f5e10083106126df576305f5e10083816126d5576126d4613efc565b5b0492506008810190505b61271083106127045761271083816126fa576126f9613efc565b5b0492506004810190505b60648310612727576064838161271d5761271c613efc565b5b0492506002810190505b600a8310612736576001810190505b80915050919050565b61274983836127bd565b6127566000848484612465565b612795576040517f08c379a000000000000000000000000000000000000000000000000000000000815260040161278c90613e02565b60405180910390fd5b505050565b6000808273ffffffffffffffffffffffffffffffffffffffff163b119050919050565b600073ffffffffffffffffffffffffffffffffffffffff168273ffffffffffffffffffffffffffffffffffffffff160361282c576040517f08c379a0000000000000000000000000000000000000000000000000000000008152600401612823906142bb565b60405180910390fd5b61283581612418565b15612875576040517f08c379a000000000000000000000000000000000000000000000000000000000815260040161286c90614327565b60405180910390fd5b612883600083836001612459565b61288c81612418565b156128cc576040517f08c379a00000000000000000000000000000000000000000000000000000000081526004016128c390614327565b60405180910390fd5b6001600360008473ffffffffffffffffffffffffffffffffffffffff1673ffffffffffffffffffffffffffffffffffffffff16815260200190815260200160002060008282540192505081905550816002600083815260200190815260200160002060006101000a81548173ffffffffffffffffffffffffffffffffffffffff021916908373ffffffffffffffffffffffffffffffffffffffff160217905550808273ffffffffffffffffffffffffffffffffffffffff16600073ffffffffffffffffffffffffffffffffffffffff167fddf252ad1be2c89b69c2b068fc378daa952ba7f163c4a11628f55a4df523b3ef60405160405180910390a46129d660008383600161245f565b5050565b6000604051905090565b600080fd5b600080fd5b60007fffffffff0000000000000000000000000000000000000000000000000000000082169050919050565b612a23816129ee565b8114612a2e57600080fd5b50565b600081359050612a4081612a1a565b92915050565b600060208284031215612a5c57612a5b6129e4565b5b6000612a6a84828501612a31565b91505092915050565b60008115159050919050565b612a8881612a73565b82525050565b6000602082019050612aa36000830184612a7f565b92915050565b600081519050919050565b600082825260208201905092915050565b60005b83811015612ae3578082015181840152602081019050612ac8565b60008484015250505050565b6000601f19601f8301169050919050565b6000612b0b82612aa9565b612b158185612ab4565b9350612b25818560208601612ac5565b612b2e81612aef565b840191505092915050565b60006020820190508181036000830152612b538184612b00565b905092915050565b6000819050919050565b612b6e81612b5b565b8114612b7957600080fd5b50565b600081359050612b8b81612b65565b92915050565b600060208284031215612ba757612ba66129e4565b5b6000612bb584828501612b7c565b91505092915050565b600073ffffffffffffffffffffffffffffffffffffffff82169050919050565b6000612be982612bbe565b9050919050565b612bf981612bde565b82525050565b6000602082019050612c146000830184612bf0565b92915050565b612c2381612bde565b8114612c2e57600080fd5b50565b600081359050612c4081612c1a565b92915050565b60008060408385031215612c5d57612c5c6129e4565b5b6000612c6b85828601612c31565b9250506020612c7c85828601612b7c565b9150509250929050565b600080fd5b600080fd5b600080fd5b60008083601f840112612cab57612caa612c86565b5b8235905067ffffffffffffffff811115612cc857612cc7612c8b565b5b602083019150836001820283011115612ce457612ce3612c90565b5b9250929050565b60008060208385031215612d0257612d016129e4565b5b600083013567ffffffffffffffff811115612d2057612d1f6129e9565b5b612d2c85828601612c95565b92509250509250929050565b600080600060608486031215612d5157612d506129e4565b5b6000612d5f86828701612c31565b9350506020612d7086828701612c31565b9250506040612d8186828701612b7c565b9150509250925092565b600080fd5b7f4e487b7100000000000000000000000000000000000000000000000000000000600052604160045260246000fd5b612dc882612aef565b810181811067ffffffffffffffff82111715612de757612de6612d90565b5b80604052505050565b6000612dfa6129da565b9050612e068282612dbf565b919050565b600067ffffffffffffffff821115612e2657612e25612d90565b5b612e2f82612aef565b9050602081019050919050565b82818337600083830152505050565b6000612e5e612e5984612e0b565b612df0565b905082815260208101848484011115612e7a57612e79612d8b565b5b612e85848285612e3c565b509392505050565b600082601f830112612ea257612ea1612c86565b5b8135612eb2848260208601612e4b565b91505092915050565b600060208284031215612ed157612ed06129e4565b5b600082013567ffffffffffffffff811115612eef57612eee6129e9565b5b612efb84828501612e8d565b91505092915050565b600060208284031215612f1a57612f196129e4565b5b6000612f2884828501612c31565b91505092915050565b612f3a81612b5b565b82525050565b6000602082019050612f556000830184612f31565b92915050565b612f6481612a73565b8114612f6f57600080fd5b50565b600081359050612f8181612f5b565b92915050565b60008060408385031215612f9e57612f9d6129e4565b5b6000612fac85828601612c31565b9250506020612fbd85828601612f72565b9150509250929050565b600067ffffffffffffffff821115612fe257612fe1612d90565b5b612feb82612aef565b9050602081019050919050565b600061300b61300684612fc7565b612df0565b90508281526020810184848401111561302757613026612d8b565b5b613032848285612e3c565b509392505050565b600082601f83011261304f5761304e612c86565b5b813561305f848260208601612ff8565b91505092915050565b60008060008060808587031215613082576130816129e4565b5b600061309087828801612c31565b94505060206130a187828801612c31565b93505060406130b287828801612b7c565b925050606085013567ffffffffffffffff8111156130d3576130d26129e9565b5b6130df8782880161303a565b91505092959194509250565b60008060008060408587031215613105576131046129e4565b5b600085013567ffffffffffffffff811115613123576131226129e9565b5b61312f87828801612c95565b9450945050602085013567ffffffffffffffff811115613152576131516129e9565b5b61315e87828801612c95565b925092505092959194509250565b60008060408385031215613183576131826129e4565b5b600061319185828601612c31565b92505060206131a285828601612c31565b9150509250929050565b7f4e487b7100000000000000000000000000000000000000000000000000000000600052602260045260246000fd5b600060028204905060018216806131f357607f821691505b602082108103613206576132056131ac565b5b50919050565b7f4552433732313a20617070726f76616c20746f2063757272656e74206f776e6560008201527f7200000000000000000000000000000000000000000000000000000000000000602082015250565b6000613268602183612ab4565b91506132738261320c565b604082019050919050565b600060208201905081810360008301526132978161325b565b9050919050565b7f4552433732313a20617070726f76652063616c6c6572206973206e6f7420746f60008201527f6b656e206f776e6572206f7220617070726f76656420666f7220616c6c000000602082015250565b60006132fa603d83612ab4565b91506133058261329e565b604082019050919050565b60006020820190508181036000830152613329816132ed565b9050919050565b600081905092915050565b60006133478385613330565b9350613354838584612e3c565b82840190509392505050565b600061336d82848661333b565b91508190509392505050565b7f4552433732313a2063616c6c6572206973206e6f7420746f6b656e206f776e6560008201527f72206f7220617070726f76656400000000000000000000000000000000000000602082015250565b60006133d5602d83612ab4565b91506133e082613379565b604082019050919050565b60006020820190508181036000830152613404816133c8565b9050919050565b7f4552433732313a20696e76616c696420746f6b656e2049440000000000000000600082015250565b6000613441601883612ab4565b915061344c8261340b565b602082019050919050565b6000602082019050818103600083015261347081613434565b9050919050565b7f4552433732313a2061646472657373207a65726f206973206e6f74206120766160008201527f6c6964206f776e65720000000000000000000000000000000000000000000000602082015250565b60006134d3602983612ab4565b91506134de82613477565b604082019050919050565b60006020820190508181036000830152613502816134c6565b9050919050565b600082905092915050565b60008190508160005260206000209050919050565b60006020601f8301049050919050565b600082821b905092915050565b6000600883026135767fffffffffffffffffffffffffffffffffffffffffffffffffffffffffffffffff82613539565b6135808683613539565b95508019841693508086168417925050509392505050565b6000819050919050565b60006135bd6135b86135b384612b5b565b613598565b612b5b565b9050919050565b6000819050919050565b6135d7836135a2565b6135eb6135e3826135c4565b848454613546565b825550505050565b600090565b6136006135f3565b61360b8184846135ce565b505050565b5b8181101561362f576136246000826135f8565b600181019050613611565b5050565b601f8211156136745761364581613514565b61364e84613529565b8101602085101561365d578190505b61367161366985613529565b830182613610565b50505b505050565b600082821c905092915050565b600061369760001984600802613679565b1980831691505092915050565b60006136b08383613686565b9150826002028217905092915050565b6136ca8383613509565b67ffffffffffffffff8111156136e3576136e2612d90565b5b6136ed82546131db565b6136f8828285613633565b6000601f8311600181146137275760008415613715578287013590505b61371f85826136a4565b865550613787565b601f19841661373586613514565b60005b8281101561375d57848901358255600182019150602085019450602081019050613738565b8683101561377a5784890135613776601f891682613686565b8355505b6001600288020188555050505b50505050505050565b600061379b82612aa9565b6137a58185613330565b93506137b5818560208601612ac5565b80840191505092915050565b60006137cd8285613790565b91506137d98284613790565b91508190509392505050565b7f4e6f7420656e6f756768204d6174696320706169640000000000000000000000600082015250565b600061381b601583612ab4565b9150613826826137e5565b602082019050919050565b6000602082019050818103600083015261384a8161380e565b9050919050565b7f2e00000000000000000000000000000000000000000000000000000000000000600082015250565b6000613887600183613330565b915061389282613851565b600182019050919050565b600081546138aa816131db565b6138b48186613330565b945060018216600081146138cf57600181146138e457613917565b60ff1983168652811515820286019350613917565b6138ed85613514565b60005b8381101561390f578154818901526001820191506020810190506138f0565b838801955050505b50505092915050565b600061392d82858761333b565b91506139388261387a565b9150613944828461389d565b9150819050949350505050565b600061395d828661389d565b91506139698285613790565b9150613975828461389d565b9150819050949350505050565b7f7b226e616d65223a202200000000000000000000000000000000000000000000600082015250565b60006139b8600a83613330565b91506139c382613982565b600a82019050919050565b7f222c20226465736372697074696f6e223a20224120646f6d61696e206f6e207460008201527f6865204e696e6a61206e616d652073657276696365222c2022696d616765223a60208201527f2022646174613a696d6167652f7376672b786d6c3b6261736536342c00000000604082015250565b6000613a50605c83613330565b9150613a5b826139ce565b605c82019050919050565b7f222c226c656e677468223a220000000000000000000000000000000000000000600082015250565b6000613a9c600c83613330565b9150613aa782613a66565b600c82019050919050565b7f227d000000000000000000000000000000000000000000000000000000000000600082015250565b6000613ae8600283613330565b9150613af382613ab2565b600282019050919050565b6000613b09826139ab565b9150613b158286613790565b9150613b2082613a43565b9150613b2c8285613790565b9150613b3782613a8f565b9150613b438284613790565b9150613b4e82613adb565b9150819050949350505050565b7f646174613a6170706c69636174696f6e2f6a736f6e3b6261736536342c000000600082015250565b6000613b91601d83613330565b9150613b9c82613b5b565b601d82019050919050565b6000613bb282613b84565b9150613bbe8284613790565b915081905092915050565b60006040820190508181036000830152613be38185612b00565b90508181036020830152613bf78184612b00565b90509392505050565b7f4552433732313a207472616e736665722066726f6d20696e636f72726563742060008201527f6f776e6572000000000000000000000000000000000000000000000000000000602082015250565b6000613c5c602583612ab4565b9150613c6782613c00565b604082019050919050565b60006020820190508181036000830152613c8b81613c4f565b9050919050565b7f4552433732313a207472616e7366657220746f20746865207a65726f2061646460008201527f7265737300000000000000000000000000000000000000000000000000000000602082015250565b6000613cee602483612ab4565b9150613cf982613c92565b604082019050919050565b60006020820190508181036000830152613d1d81613ce1565b9050919050565b7f4552433732313a20617070726f766520746f2063616c6c657200000000000000600082015250565b6000613d5a601983612ab4565b9150613d6582613d24565b602082019050919050565b60006020820190508181036000830152613d8981613d4d565b9050919050565b7f4552433732313a207472616e7366657220746f206e6f6e20455243373231526560008201527f63656976657220696d706c656d656e7465720000000000000000000000000000602082015250565b6000613dec603283612ab4565b9150613df782613d90565b604082019050919050565b60006020820190508181036000830152613e1b81613ddf565b9050919050565b7f4e487b7100000000000000000000000000000000000000000000000000000000600052603260045260246000fd5b7f4e487b7100000000000000000000000000000000000000000000000000000000600052601160045260246000fd5b6000613e8b82612b5b565b9150613e9683612b5b565b9250828201905080821115613eae57613ead613e51565b5b92915050565b6000613ebf82612b5b565b91507fffffffffffffffffffffffffffffffffffffffffffffffffffffffffffffffff8203613ef157613ef0613e51565b5b600182019050919050565b7f4e487b7100000000000000000000000000000000000000000000000000000000600052601260045260246000fd5b60006080820190508181036000830152613f458187612b00565b90508181036020830152613f598186612b00565b90508181036040830152613f6d8185612b00565b9050613f7c6060830184612f31565b95945050505050565b6000613f9082612b5b565b9150613f9b83612b5b565b925082613fab57613faa613efc565b5b828204905092915050565b6000613fc182612b5b565b9150613fcc83612b5b565b9250828202613fda81612b5b565b91508282048414831517613ff157613ff0613e51565b5b5092915050565b7f45524337323155524953746f726167653a2055524920736574206f66206e6f6e60008201527f6578697374656e7420746f6b656e000000000000000000000000000000000000602082015250565b6000614054602e83612ab4565b915061405f82613ff8565b604082019050919050565b6000602082019050818103600083015261408381614047565b9050919050565b61409382612aa9565b67ffffffffffffffff8111156140ac576140ab612d90565b5b6140b682546131db565b6140c1828285613633565b600060209050601f8311600181146140f457600084156140e2578287015190505b6140ec85826136a4565b865550614154565b601f19841661410286613514565b60005b8281101561412a57848901518255600182019150602085019450602081019050614105565b868310156141475784890151614143601f891682613686565b8355505b6001600288020188555050505b505050505050565b600060408201905081810360008301526141768185612b00565b90506141856020830184612bf0565b9392505050565b600081519050919050565b600082825260208201905092915050565b60006141b38261418c565b6141bd8185614197565b93506141cd818560208601612ac5565b6141d681612aef565b840191505092915050565b60006080820190506141f66000830187612bf0565b6142036020830186612bf0565b6142106040830185612f31565b818103606083015261422281846141a8565b905095945050505050565b60008151905061423c81612a1a565b92915050565b600060208284031215614258576142576129e4565b5b60006142668482850161422d565b91505092915050565b7f4552433732313a206d696e7420746f20746865207a65726f2061646472657373600082015250565b60006142a5602083612ab4565b91506142b08261426f565b602082019050919050565b600060208201905081810360008301526142d481614298565b9050919050565b7f4552433732313a20746f6b656e20616c7265616479206d696e74656400000000600082015250565b6000614311601c83612ab4565b915061431c826142db565b602082019050919050565b6000602082019050818103600083015261434081614304565b905091905056fe0a2d2d2d2d2d2d2d2d2d2d2d2d2d2d2d2d2d2d2d2d2d2d2d2d2d2d2d2d2d2d2d2d2d2d2d2d2d2d2d2d2d2d2d2d2d2d2d2d2d2d2d2d2d2d2d2d5265676973746572696e672025732e2573206f6e2074686520636f6e7472616374207769746820746f6b656e49442025642d2d2d2d2d2d2d2d2d2d2d2d2d2d2d2d2d2d2d2d2d2d2d2d2d2d2d2d2d2d2d2d2d2d2d2d2d2d2d2d2d2d2d2d2d2d2d2d2d2d2d2d2d2d2d2d0a4142434445464748494a4b4c4d4e4f505152535455565758595a6162636465666768696a6b6c6d6e6f707172737475767778797a303132333435363738392b2fa264697066735822122078db04a38bdf501736a4ed2f9aeb7403500a8a0c2b339d81b97ccd0edf4c422c64736f6c634300081200333c73766720786d6c6e733d22687474703a2f2f7777772e77332e6f72672f323030302f737667222077696474683d2232373022206865696768743d22323730222066696c6c3d226e6f6e65223e3c706174682066696c6c3d2275726c282342292220643d224d302030683237307632373048307a222f3e3c646566733e3c66696c7465722069643d22412220636f6c6f722d696e746572706f6c6174696f6e2d66696c746572733d2273524742222066696c746572556e6974733d227573657253706163654f6e55736522206865696768743d22323730222077696474683d22323730223e3c666544726f70536861646f772064783d2230222064793d22312220737464446576696174696f6e3d22322220666c6f6f642d6f7061636974793d222e323235222077696474683d223230302522206865696768743d2232303025222f3e3c2f66696c7465723e3c2f646566733e3c7061746820643d224d37322e3836332034322e393439632d2e3636382d2e3338372d312e3432362d2e35392d322e3139372d2e3539732d312e3532392e3230342d322e3139372e35396c2d31302e30383120362e3033322d362e383520332e3933342d31302e30383120362e303332632d2e3636382e3338372d312e3432362e35392d322e3139372e3539732d312e3532392d2e3230342d322e3139372d2e35396c2d382e3031332d342e37323161342e353220342e35322030203020312d312e3538392d312e363136632d2e3338342d2e3636352d2e3539342d312e3431382d2e3630382d322e313837762d392e3331632d2e3031332d2e3737352e3138352d312e3533382e3537322d322e32303861342e323520342e323520302030203120312e3632352d312e3539356c372e3838342d342e3539632e3636382d2e33383720312e3432362d2e353920322e3139372d2e353973312e3532392e32303420322e3139372e35396c372e38383420342e353961342e353220342e353220302030203120312e35383920312e363136632e3338342e3636352e35393420312e3431382e36303820322e31383776362e3033326c362e38352d342e303635762d362e303332632e3031332d2e3737352d2e3138352d312e3533382d2e3537322d322e32303861342e323520342e32352030203020302d312e3632352d312e3539354c34312e3435362032342e3539632d2e3636382d2e3338372d312e3432362d2e35392d322e3139372d2e3539732d312e3532392e3230342d322e3139372e35396c2d31342e38363420382e36353561342e323520342e32352030203020302d312e36323520312e353935632d2e3338372e36372d2e35383520312e3433342d2e35373220322e3230387631372e343431632d2e3031332e3737352e31383520312e3533382e35373220322e32303861342e323520342e323520302030203020312e36323520312e3539356c31342e38363420382e363535632e3636382e33383720312e3432362e353920322e3139372e353973312e3532392d2e32303420322e3139372d2e35396c31302e3038312d352e39303120362e38352d342e3036352031302e3038312d352e393031632e3636382d2e33383720312e3432362d2e353920322e3139372d2e353973312e3532392e32303420322e3139372e35396c372e38383420342e353961342e353220342e353220302030203120312e35383920312e363136632e3338342e3636352e35393420312e3431382e36303820322e31383776392e333131632e3031332e3737352d2e31383520312e3533382d2e35373220322e32303861342e323520342e32352030203020312d312e36323520312e3539356c2d372e38383420342e373231632d2e3636382e3338372d312e3432362e35392d322e3139372e3539732d312e3532392d2e3230342d322e3139372d2e35396c2d372e3838342d342e353961342e353220342e35322030203020312d312e3538392d312e363136632d2e3338352d2e3636352d2e3539342d312e3431382d2e3630382d322e313837762d362e3033326c2d362e383520342e30363576362e303332632d2e3031332e3737352e31383520312e3533382e35373220322e32303861342e323520342e323520302030203020312e36323520312e3539356c31342e38363420382e363535632e3636382e33383720312e3432362e353920322e3139372e353973312e3532392d2e32303420322e3139372d2e35396c31342e3836342d382e363535632e3635372d2e33393420312e3230342d2e393520312e3538392d312e363136732e3539342d312e3431382e3630392d322e3138375635352e353338632e3031332d2e3737352d2e3138352d312e3533382d2e3537322d322e32303861342e323520342e32352030203020302d312e3632352d312e3539356c2d31342e3939332d382e3738367a222066696c6c3d2223666666222f3e3c646566733e3c6c696e6561724772616469656e742069643d2242222078313d2230222079313d2230222078323d22323730222079323d2232373022206772616469656e74556e6974733d227573657253706163654f6e557365223e3c73746f702073746f702d636f6c6f723d2223636235656565222f3e3c73746f70206f66667365743d2231222073746f702d636f6c6f723d2223306364376534222073746f702d6f7061636974793d222e3939222f3e3c2f6c696e6561724772616469656e743e3c2f646566733e3c7465787420783d2233322e352220793d223233312220666f6e742d73697a653d223237222066696c6c3d2223666666222066696c7465723d2275726c282341292220666f6e742d66616d696c793d22506c7573204a616b617274612053616e732c44656a6156752053616e732c4e6f746f20436f6c6f7220456d6f6a692c4170706c6520436f6c6f7220456d6f6a692c73616e732d73657269662220666f6e742d7765696768743d22626f6c64223e",
  "linkReferences": {},
  "deployedLinkReferences": {}
}